{
  "_format": "hh-sol-artifact-1",
  "contractName": "PlayGame",
  "sourceName": "contracts/PlayGame.sol",
  "abi": [
    {
      "inputs": [
        {
          "internalType": "address",
          "name": "_gameToken",
          "type": "address"
        },
        {
          "internalType": "address",
          "name": "_operator",
          "type": "address"
        }
      ],
      "stateMutability": "nonpayable",
      "type": "constructor"
    },
    {
      "inputs": [
        {
          "internalType": "address",
          "name": "owner",
          "type": "address"
        }
      ],
      "name": "OwnableInvalidOwner",
      "type": "error"
    },
    {
      "inputs": [
        {
          "internalType": "address",
          "name": "account",
          "type": "address"
        }
      ],
      "name": "OwnableUnauthorizedAccount",
      "type": "error"
    },
    {
      "inputs": [],
      "name": "ReentrancyGuardReentrantCall",
      "type": "error"
    },
    {
      "anonymous": false,
      "inputs": [
        {
          "indexed": true,
          "internalType": "bytes32",
          "name": "matchId",
          "type": "bytes32"
        },
        {
          "indexed": true,
          "internalType": "address",
          "name": "p1",
          "type": "address"
        },
        {
          "indexed": true,
          "internalType": "address",
          "name": "p2",
          "type": "address"
        },
        {
          "indexed": false,
          "internalType": "uint256",
          "name": "stake",
          "type": "uint256"
        }
      ],
      "name": "MatchCreated",
      "type": "event"
    },
    {
      "anonymous": false,
      "inputs": [
        {
          "indexed": true,
          "internalType": "address",
          "name": "oldOperator",
          "type": "address"
        },
        {
          "indexed": true,
          "internalType": "address",
          "name": "newOperator",
          "type": "address"
        }
      ],
      "name": "OperatorUpdated",
      "type": "event"
    },
    {
      "anonymous": false,
      "inputs": [
        {
          "indexed": true,
          "internalType": "address",
          "name": "previousOwner",
          "type": "address"
        },
        {
          "indexed": true,
          "internalType": "address",
          "name": "newOwner",
          "type": "address"
        }
      ],
      "name": "OwnershipTransferred",
      "type": "event"
    },
    {
      "anonymous": false,
      "inputs": [
        {
          "indexed": true,
          "internalType": "bytes32",
          "name": "matchId",
          "type": "bytes32"
        },
        {
          "indexed": true,
          "internalType": "address",
          "name": "player",
          "type": "address"
        },
        {
          "indexed": false,
          "internalType": "uint256",
          "name": "amount",
          "type": "uint256"
        }
      ],
      "name": "Refunded",
      "type": "event"
    },
    {
      "anonymous": false,
      "inputs": [
        {
          "indexed": true,
          "internalType": "bytes32",
          "name": "matchId",
          "type": "bytes32"
        },
        {
          "indexed": true,
          "internalType": "address",
          "name": "winner",
          "type": "address"
        },
        {
          "indexed": false,
          "internalType": "uint256",
          "name": "payout",
          "type": "uint256"
        }
      ],
      "name": "Settled",
      "type": "event"
    },
    {
      "anonymous": false,
      "inputs": [
        {
          "indexed": true,
          "internalType": "bytes32",
          "name": "matchId",
          "type": "bytes32"
        },
        {
          "indexed": true,
          "internalType": "address",
          "name": "player",
          "type": "address"
        },
        {
          "indexed": false,
          "internalType": "uint256",
          "name": "amount",
          "type": "uint256"
        }
      ],
      "name": "Staked",
      "type": "event"
    },
    {
      "inputs": [],
      "name": "MATCH_TIMEOUT",
      "outputs": [
        {
          "internalType": "uint256",
          "name": "",
          "type": "uint256"
        }
      ],
      "stateMutability": "view",
      "type": "function"
    },
    {
      "inputs": [
        {
          "internalType": "bytes32",
          "name": "matchId",
          "type": "bytes32"
        },
        {
          "internalType": "address",
          "name": "winner",
          "type": "address"
        }
      ],
      "name": "commitResult",
      "outputs": [],
      "stateMutability": "nonpayable",
      "type": "function"
    },
    {
      "inputs": [
        {
          "internalType": "bytes32",
          "name": "matchId",
          "type": "bytes32"
        },
        {
          "internalType": "address",
          "name": "p1",
          "type": "address"
        },
        {
          "internalType": "address",
          "name": "p2",
          "type": "address"
        },
        {
          "internalType": "uint256",
          "name": "stakeAmount",
          "type": "uint256"
        }
      ],
      "name": "createMatch",
      "outputs": [],
      "stateMutability": "nonpayable",
      "type": "function"
    },
    {
      "inputs": [],
      "name": "gameToken",
      "outputs": [
        {
          "internalType": "contract IERC20",
          "name": "",
          "type": "address"
        }
      ],
      "stateMutability": "view",
      "type": "function"
    },
    {
      "inputs": [
        {
          "internalType": "bytes32",
          "name": "matchId",
          "type": "bytes32"
        }
      ],
      "name": "getMatch",
      "outputs": [
        {
          "components": [
            {
              "internalType": "bytes32",
              "name": "matchId",
              "type": "bytes32"
            },
            {
              "internalType": "address",
              "name": "player1",
              "type": "address"
            },
            {
              "internalType": "address",
              "name": "player2",
              "type": "address"
            },
            {
              "internalType": "uint256",
              "name": "stake",
              "type": "uint256"
            },
            {
              "internalType": "bool",
              "name": "p1Staked",
              "type": "bool"
            },
            {
              "internalType": "bool",
              "name": "p2Staked",
              "type": "bool"
            },
            {
              "internalType": "uint256",
              "name": "startTime",
              "type": "uint256"
            },
            {
              "internalType": "enum PlayGame.MatchStatus",
              "name": "status",
              "type": "uint8"
            },
            {
              "internalType": "address",
              "name": "winner",
              "type": "address"
            }
          ],
          "internalType": "struct PlayGame.Match",
          "name": "",
          "type": "tuple"
        }
      ],
      "stateMutability": "view",
      "type": "function"
    },
    {
      "inputs": [
        {
          "internalType": "bytes32",
          "name": "",
          "type": "bytes32"
        }
      ],
      "name": "matches",
      "outputs": [
        {
          "internalType": "bytes32",
          "name": "matchId",
          "type": "bytes32"
        },
        {
          "internalType": "address",
          "name": "player1",
          "type": "address"
        },
        {
          "internalType": "address",
          "name": "player2",
          "type": "address"
        },
        {
          "internalType": "uint256",
          "name": "stake",
          "type": "uint256"
        },
        {
          "internalType": "bool",
          "name": "p1Staked",
          "type": "bool"
        },
        {
          "internalType": "bool",
          "name": "p2Staked",
          "type": "bool"
        },
        {
          "internalType": "uint256",
          "name": "startTime",
          "type": "uint256"
        },
        {
          "internalType": "enum PlayGame.MatchStatus",
          "name": "status",
          "type": "uint8"
        },
        {
          "internalType": "address",
          "name": "winner",
          "type": "address"
        }
      ],
      "stateMutability": "view",
      "type": "function"
    },
    {
      "inputs": [],
      "name": "operator",
      "outputs": [
        {
          "internalType": "address",
          "name": "",
          "type": "address"
        }
      ],
      "stateMutability": "view",
      "type": "function"
    },
    {
      "inputs": [],
      "name": "owner",
      "outputs": [
        {
          "internalType": "address",
          "name": "",
          "type": "address"
        }
      ],
      "stateMutability": "view",
      "type": "function"
    },
    {
      "inputs": [
        {
          "internalType": "bytes32",
          "name": "matchId",
          "type": "bytes32"
        }
      ],
      "name": "refund",
      "outputs": [],
      "stateMutability": "nonpayable",
      "type": "function"
    },
    {
      "inputs": [],
      "name": "renounceOwnership",
      "outputs": [],
      "stateMutability": "nonpayable",
      "type": "function"
    },
    {
      "inputs": [
        {
          "internalType": "address",
          "name": "_operator",
          "type": "address"
        }
      ],
      "name": "setOperator",
      "outputs": [],
      "stateMutability": "nonpayable",
      "type": "function"
    },
    {
      "inputs": [
        {
          "internalType": "bytes32",
          "name": "matchId",
          "type": "bytes32"
        }
      ],
      "name": "stake",
      "outputs": [],
      "stateMutability": "nonpayable",
      "type": "function"
    },
    {
      "inputs": [
        {
          "internalType": "address",
          "name": "newOwner",
          "type": "address"
        }
      ],
      "name": "transferOwnership",
      "outputs": [],
      "stateMutability": "nonpayable",
      "type": "function"
    }
  ],
  "bytecode": "0x60a06040523480156200001157600080fd5b5060405162001a7f38038062001a7f8339810160408190526200003491620001c9565b33806200005c57604051631e4fbdf760e01b8152600060048201526024015b60405180910390fd5b62000067816200015c565b50600180556001600160a01b038216620000d05760405162461bcd60e51b815260206004820152602360248201527f506c617947616d653a20696e76616c69642047616d65546f6b656e206164647260448201526265737360e81b606482015260840162000053565b6001600160a01b038116620001335760405162461bcd60e51b815260206004820152602260248201527f506c617947616d653a20696e76616c6964206f70657261746f72206164647265604482015261737360f01b606482015260840162000053565b6001600160a01b03918216608052600280546001600160a01b0319169190921617905562000201565b600080546001600160a01b038381166001600160a01b0319831681178455604051919092169283917f8be0079c531659141344cd1fd0a4f28419497f9722a3daafe3b4186f6b6457e09190a35050565b80516001600160a01b0381168114620001c457600080fd5b919050565b60008060408385031215620001dd57600080fd5b620001e883620001ac565b9150620001f860208401620001ac565b90509250929050565b608051611838620002476000396000818161021e0152818161043501528181610a9601528181610bf001528181610fb6015281816110a1015261119901526118386000f3fe608060405234801561001057600080fd5b50600436106100cf5760003560e01c8063926590dd1161008c578063c0d64a8711610066578063c0d64a8714610206578063c3dfdae614610219578063f2fde38b14610240578063fcc6077d1461025357600080fd5b8063926590dd146101585780639fe9ada314610170578063b3ab15fb146101f357600080fd5b8063270ab7f5146100d45780633acb3700146100e9578063570ca735146100fc578063715018a61461012c5780637249fbb6146101345780638da5cb5b14610147575b600080fd5b6100e76100e2366004611529565b610273565b005b6100e76100f7366004611555565b610548565b60025461010f906001600160a01b031681565b6040516001600160a01b0390911681526020015b60405180910390f35b6100e7610949565b6100e7610142366004611599565b61095d565b6000546001600160a01b031661010f565b6101626201518081565b604051908152602001610123565b6101de61017e366004611599565b6003602081905260009182526040909120805460018201546002830154938301546004840154600585015460069095015493956001600160a01b039384169590841694929360ff8084169461010094859004821694918116929190041689565b604051610123999897969594939291906115ea565b6100e761020136600461164e565b610d12565b6100e7610214366004611599565b610dcd565b61010f7f000000000000000000000000000000000000000000000000000000000000000081565b6100e761024e36600461164e565b611316565b610266610261366004611599565b611351565b6040516101239190611670565b6002546001600160a01b031633146102d25760405162461bcd60e51b815260206004820181905260248201527f506c617947616d653a2063616c6c6572206973206e6f74206f70657261746f7260448201526064015b60405180910390fd5b6102da611466565b60008281526003602052604090206001015482906001600160a01b03166103135760405162461bcd60e51b81526004016102c990611706565b60008381526003602052604090206001600682015460ff16600381111561033c5761033c6115b2565b146103595760405162461bcd60e51b81526004016102c99061173d565b60018101546001600160a01b0384811691161480610386575060028101546001600160a01b038481169116145b6103d25760405162461bcd60e51b815260206004820152601860248201527f506c617947616d653a20696e76616c69642077696e6e6572000000000000000060448201526064016102c9565b6000816003015460026103e59190611797565b6006830180546001600160a01b0387811661010081026001600160a81b03199093169290921760021790925560405163a9059cbb60e01b81526004810191909152602481018390529192506000917f00000000000000000000000000000000000000000000000000000000000000009091169063a9059cbb906044016020604051808303816000875af1158015610480573d6000803e3d6000fd5b505050506040513d601f19601f820116820180604052508101906104a491906117b4565b9050806104f35760405162461bcd60e51b815260206004820152601c60248201527f506c617947616d653a204754207472616e73666572206661696c65640000000060448201526064016102c9565b846001600160a01b0316867f16cfaad9ef877ffdcfedd9eae2009b4d27454094546f8fab5fbb10129037afc88460405161052f91815260200190565b60405180910390a35050505061054460018055565b5050565b6000546001600160a01b031633148061056b57506002546001600160a01b031633145b6105b05760405162461bcd60e51b8152602060048201526016602482015275141b185e51d85b594e881d5b985d5d1a1bdc9a5e995960521b60448201526064016102c9565b836105fd5760405162461bcd60e51b815260206004820152601a60248201527f506c617947616d653a20696e76616c6964206d6174636820494400000000000060448201526064016102c9565b6001600160a01b0383161580159061061d57506001600160a01b03821615155b6106745760405162461bcd60e51b815260206004820152602260248201527f506c617947616d653a20696e76616c696420706c617965722061646472657373604482015261657360f01b60648201526084016102c9565b816001600160a01b0316836001600160a01b0316036106e15760405162461bcd60e51b8152602060048201526024808201527f506c617947616d653a20706c61796572732063616e6e6f74206265207468652060448201526373616d6560e01b60648201526084016102c9565b600081116107315760405162461bcd60e51b815260206004820181905260248201527f506c617947616d653a207374616b65206d75737420626520706f73697469766560448201526064016102c9565b6000848152600360205260409020600101546001600160a01b0316156107995760405162461bcd60e51b815260206004820152601e60248201527f506c617947616d653a206d6174636820616c726561647920657869737473000060448201526064016102c9565b604051806101200160405280858152602001846001600160a01b03168152602001836001600160a01b0316815260200182815260200160001515815260200160001515815260200160008152602001600060038111156107fb576107fb6115b2565b81526000602091820181905286815260038083526040918290208451815592840151600180850180546001600160a01b039384166001600160a01b03199182161790915593860151600286018054919093169416939093179055606084015183820155608084015160048401805460a087015115156101000261ff00199315159390931661ffff199091161791909117905560c0840151600584015560e08401516006840180549193909260ff19929092169184908111156108bf576108bf6115b2565b02179055506101008201518160060160016101000a8154816001600160a01b0302191690836001600160a01b03160217905550905050816001600160a01b0316836001600160a01b0316857f4becde1621d018f3c4630cadb81bbd72061cd951ebaab5e8b10d5b2fecfa49ce8460405161093b91815260200190565b60405180910390a450505050565b610951611490565b61095b60006114bd565b565b610965611466565b60008181526003602052604090206001015481906001600160a01b031661099e5760405162461bcd60e51b81526004016102c990611706565b60008281526003602052604090206001600682015460ff1660038111156109c7576109c76115b2565b146109e45760405162461bcd60e51b81526004016102c99061173d565b6201518081600501546109f791906117d6565b421015610a465760405162461bcd60e51b815260206004820152601d60248201527f506c617947616d653a2074696d656f7574206e6f74207265616368656400000060448201526064016102c9565b60068101805460ff19166003179055600481015460ff1615610baa576001810154600382015460405163a9059cbb60e01b81526001600160a01b03928316600482015260248101919091526000917f0000000000000000000000000000000000000000000000000000000000000000169063a9059cbb906044016020604051808303816000875af1158015610adf573d6000803e3d6000fd5b505050506040513d601f19601f82011682018060405250810190610b0391906117b4565b905080610b5d5760405162461bcd60e51b815260206004820152602260248201527f506c617947616d653a204754207472616e7366657220746f207031206661696c604482015261195960f21b60648201526084016102c9565b600182015460038301546040519081526001600160a01b039091169085907ff552ca82e113ac3c539c3d617f29fcd19c172a0c75dad017555c9e109f7fe1839060200160405180910390a3505b6004810154610100900460ff1615610d04576002810154600382015460405163a9059cbb60e01b81526001600160a01b03928316600482015260248101919091526000917f0000000000000000000000000000000000000000000000000000000000000000169063a9059cbb906044016020604051808303816000875af1158015610c39573d6000803e3d6000fd5b505050506040513d601f19601f82011682018060405250810190610c5d91906117b4565b905080610cb75760405162461bcd60e51b815260206004820152602260248201527f506c617947616d653a204754207472616e7366657220746f207032206661696c604482015261195960f21b60648201526084016102c9565b600282015460038301546040519081526001600160a01b039091169085907ff552ca82e113ac3c539c3d617f29fcd19c172a0c75dad017555c9e109f7fe1839060200160405180910390a3505b5050610d0f60018055565b50565b610d1a611490565b6001600160a01b038116610d7b5760405162461bcd60e51b815260206004820152602260248201527f506c617947616d653a20696e76616c6964206f70657261746f72206164647265604482015261737360f01b60648201526084016102c9565b600280546001600160a01b038381166001600160a01b0319831681179093556040519116919082907ffbe5b6cbafb274f445d7fed869dc77a838d8243a22c460de156560e8857cad0390600090a35050565b610dd5611466565b60008181526003602052604090206001015481906001600160a01b0316610e0e5760405162461bcd60e51b81526004016102c990611706565b600082815260036020526040812090600682015460ff166003811115610e3657610e366115b2565b14610e915760405162461bcd60e51b815260206004820152602560248201527f506c617947616d653a206d61746368206e6f7420696e20435245415445442073604482015264746174757360d81b60648201526084016102c9565b60018101546001600160a01b0316331480610eb8575060028101546001600160a01b031633145b610f105760405162461bcd60e51b8152602060048201526024808201527f506c617947616d653a206e6f74206120706c6179657220696e2074686973206d6044820152630c2e8c6d60e31b60648201526084016102c9565b60018101546001600160a01b03163314808015610f325750600482015460ff16155b80610f50575080158015610f5057506004820154610100900460ff16155b610f9c5760405162461bcd60e51b815260206004820152601860248201527f506c617947616d653a20616c7265616479207374616b6564000000000000000060448201526064016102c9565b60038201546040516370a0823160e01b81523360048201527f00000000000000000000000000000000000000000000000000000000000000006001600160a01b0316906370a0823190602401602060405180830381865afa158015611005573d6000803e3d6000fd5b505050506040513d601f19601f8201168201806040525081019061102991906117e9565b10156110815760405162461bcd60e51b815260206004820152602160248201527f506c617947616d653a20696e73756666696369656e742047542062616c616e636044820152606560f81b60648201526084016102c9565b6003820154604051636eb1769f60e11b81523360048201523060248201527f00000000000000000000000000000000000000000000000000000000000000006001600160a01b03169063dd62ed3e90604401602060405180830381865afa1580156110f0573d6000803e3d6000fd5b505050506040513d601f19601f8201168201806040525081019061111491906117e9565b101561116e5760405162461bcd60e51b815260206004820152602360248201527f506c617947616d653a20696e73756666696369656e7420475420616c6c6f77616044820152626e636560e81b60648201526084016102c9565b60038201546040516323b872dd60e01b815233600482015230602482015260448101919091526000907f00000000000000000000000000000000000000000000000000000000000000006001600160a01b0316906323b872dd906064016020604051808303816000875af11580156111ea573d6000803e3d6000fd5b505050506040513d601f19601f8201168201806040525081019061120e91906117b4565b90508061125d5760405162461bcd60e51b815260206004820152601c60248201527f506c617947616d653a204754207472616e73666572206661696c65640000000060448201526064016102c9565b81156112775760048301805460ff19166001179055611289565b60048301805461ff0019166101001790555b600483015460ff1680156112a657506004830154610100900460ff165b156112c15760068301805460ff191660011790554260058401555b336001600160a01b0316857f33d3d5394940f875165e970f73650b86770fcee50f641313bb760de473fb601f856003015460405161130191815260200190565b60405180910390a350505050610d0f60018055565b61131e611490565b6001600160a01b03811661134857604051631e4fbdf760e01b8152600060048201526024016102c9565b610d0f816114bd565b6040805161012081018252600080825260208201819052918101829052606081018290526080810182905260a0810182905260c0810182905260e081018290526101008101919091526000828152600360208181526040928390208351610120810185528154815260018201546001600160a01b0390811693820193909352600282015490921693820193909352828201546060820152600483015460ff808216151560808401526101009091048116151560a0830152600584015460c0830152600684015491939260e085019290911690811115611432576114326115b2565b6003811115611443576114436115b2565b81526006919091015461010090046001600160a01b031660209091015292915050565b60026001540361148957604051633ee5aeb560e01b815260040160405180910390fd5b6002600155565b6000546001600160a01b0316331461095b5760405163118cdaa760e01b81523360048201526024016102c9565b600080546001600160a01b038381166001600160a01b0319831681178455604051919092169283917f8be0079c531659141344cd1fd0a4f28419497f9722a3daafe3b4186f6b6457e09190a35050565b80356001600160a01b038116811461152457600080fd5b919050565b6000806040838503121561153c57600080fd5b8235915061154c6020840161150d565b90509250929050565b6000806000806080858703121561156b57600080fd5b8435935061157b6020860161150d565b92506115896040860161150d565b9396929550929360600135925050565b6000602082840312156115ab57600080fd5b5035919050565b634e487b7160e01b600052602160045260246000fd5b600481106115e657634e487b7160e01b600052602160045260246000fd5b9052565b8981526001600160a01b038981166020830152888116604083015260608201889052861515608083015285151560a083015260c0820185905261012082019061163660e08401866115c8565b808416610100840152509a9950505050505050505050565b60006020828403121561166057600080fd5b6116698261150d565b9392505050565b60006101208201905082518252602083015160018060a01b03808216602085015280604086015116604085015250506060830151606083015260808301516116bc608084018215159052565b5060a08301516116d060a084018215159052565b5060c083015160c083015260e08301516116ed60e08401826115c8565b50610100928301516001600160a01b0316919092015290565b6020808252601e908201527f506c617947616d653a206d6174636820646f6573206e6f742065786973740000604082015260600190565b60208082526024908201527f506c617947616d653a206d61746368206e6f7420696e205354414b45442073746040820152636174757360e01b606082015260800190565b634e487b7160e01b600052601160045260246000fd5b80820281158282048414176117ae576117ae611781565b92915050565b6000602082840312156117c657600080fd5b8151801515811461166957600080fd5b808201808211156117ae576117ae611781565b6000602082840312156117fb57600080fd5b505191905056fea2646970667358221220496ceb5340153680780b551e7e54beede044fd4823f1b88a2341213bf6e1368d64736f6c63430008140033",
  "linkReferences": {},
  "deployedLinkReferences": {}
}