{
  "_format": "hh-sol-artifact-1",
  "contractName": "TokenStore",
  "sourceName": "contracts/TokenStore.sol",
  "abi": [
    {
      "inputs": [
        {
          "internalType": "address",
          "name": "_usdt",
          "type": "address"
        },
        {
          "internalType": "address",
          "name": "_gameToken",
          "type": "address"
        },
        {
          "internalType": "uint256",
          "name": "_gtPerUsdt",
          "type": "uint256"
        }
      ],
      "stateMutability": "nonpayable",
      "type": "constructor"
    },
    {
      "inputs": [
        {
          "internalType": "address",
          "name": "owner",
          "type": "address"
        }
      ],
      "name": "OwnableInvalidOwner",
      "type": "error"
    },
    {
      "inputs": [
        {
          "internalType": "address",
          "name": "account",
          "type": "address"
        }
      ],
      "name": "OwnableUnauthorizedAccount",
      "type": "error"
    },
    {
      "inputs": [],
      "name": "ReentrancyGuardReentrantCall",
      "type": "error"
    },
    {
      "anonymous": false,
      "inputs": [
        {
          "indexed": true,
          "internalType": "address",
          "name": "previousOwner",
          "type": "address"
        },
        {
          "indexed": true,
          "internalType": "address",
          "name": "newOwner",
          "type": "address"
        }
      ],
      "name": "OwnershipTransferred",
      "type": "event"
    },
    {
      "anonymous": false,
      "inputs": [
        {
          "indexed": true,
          "internalType": "address",
          "name": "buyer",
          "type": "address"
        },
        {
          "indexed": false,
          "internalType": "uint256",
          "name": "usdtAmount",
          "type": "uint256"
        },
        {
          "indexed": false,
          "internalType": "uint256",
          "name": "gtOut",
          "type": "uint256"
        }
      ],
      "name": "Purchase",
      "type": "event"
    },
    {
      "anonymous": false,
      "inputs": [
        {
          "indexed": false,
          "internalType": "uint256",
          "name": "oldRate",
          "type": "uint256"
        },
        {
          "indexed": false,
          "internalType": "uint256",
          "name": "newRate",
          "type": "uint256"
        }
      ],
      "name": "RateUpdated",
      "type": "event"
    },
    {
      "anonymous": false,
      "inputs": [
        {
          "indexed": true,
          "internalType": "address",
          "name": "to",
          "type": "address"
        },
        {
          "indexed": false,
          "internalType": "uint256",
          "name": "amount",
          "type": "uint256"
        }
      ],
      "name": "USDTWithdrawn",
      "type": "event"
    },
    {
      "inputs": [
        {
          "internalType": "uint256",
          "name": "usdtAmount",
          "type": "uint256"
        }
      ],
      "name": "buy",
      "outputs": [],
      "stateMutability": "nonpayable",
      "type": "function"
    },
    {
      "inputs": [],
      "name": "gameToken",
      "outputs": [
        {
          "internalType": "contract GameToken",
          "name": "",
          "type": "address"
        }
      ],
      "stateMutability": "view",
      "type": "function"
    },
    {
      "inputs": [],
      "name": "gtPerUsdt",
      "outputs": [
        {
          "internalType": "uint256",
          "name": "",
          "type": "uint256"
        }
      ],
      "stateMutability": "view",
      "type": "function"
    },
    {
      "inputs": [],
      "name": "owner",
      "outputs": [
        {
          "internalType": "address",
          "name": "",
          "type": "address"
        }
      ],
      "stateMutability": "view",
      "type": "function"
    },
    {
      "inputs": [],
      "name": "renounceOwnership",
      "outputs": [],
      "stateMutability": "nonpayable",
      "type": "function"
    },
    {
      "inputs": [
        {
          "internalType": "address",
          "name": "newOwner",
          "type": "address"
        }
      ],
      "name": "transferOwnership",
      "outputs": [],
      "stateMutability": "nonpayable",
      "type": "function"
    },
    {
      "inputs": [
        {
          "internalType": "uint256",
          "name": "_gtPerUsdt",
          "type": "uint256"
        }
      ],
      "name": "updateRate",
      "outputs": [],
      "stateMutability": "nonpayable",
      "type": "function"
    },
    {
      "inputs": [],
      "name": "usdt",
      "outputs": [
        {
          "internalType": "contract IERC20",
          "name": "",
          "type": "address"
        }
      ],
      "stateMutability": "view",
      "type": "function"
    },
    {
      "inputs": [
        {
          "internalType": "address",
          "name": "to",
          "type": "address"
        },
        {
          "internalType": "uint256",
          "name": "amount",
          "type": "uint256"
        }
      ],
      "name": "withdrawUSDT",
      "outputs": [],
      "stateMutability": "nonpayable",
      "type": "function"
    }
  ],
  "bytecode": "0x60c060405234801561001057600080fd5b50604051610e0b380380610e0b83398101604081905261002f916101ff565b338061005657604051631e4fbdf760e01b8152600060048201526024015b60405180910390fd5b61005f81610193565b50600180556001600160a01b0383166100ba5760405162461bcd60e51b815260206004820181905260248201527f546f6b656e53746f72653a20696e76616c696420555344542061646472657373604482015260640161004d565b6001600160a01b03821661011e5760405162461bcd60e51b815260206004820152602560248201527f546f6b656e53746f72653a20696e76616c69642047616d65546f6b656e206164604482015264647265737360d81b606482015260840161004d565b600081116101785760405162461bcd60e51b815260206004820152602160248201527f546f6b656e53746f72653a20696e76616c69642065786368616e6765207261746044820152606560f81b606482015260840161004d565b6001600160a01b03928316608052911660a05260025561023b565b600080546001600160a01b038381166001600160a01b0319831681178455604051919092169283917f8be0079c531659141344cd1fd0a4f28419497f9722a3daafe3b4186f6b6457e09190a35050565b80516001600160a01b03811681146101fa57600080fd5b919050565b60008060006060848603121561021457600080fd5b61021d846101e3565b925061022b602085016101e3565b9150604084015190509250925092565b60805160a051610b826102896000396000818161012201526108b401526000818160b20152818161025701528181610341015281816105f2015281816106de01526107d40152610b826000f3fe608060405234801561001057600080fd5b50600436106100935760003560e01c80638da5cb5b116100665780638da5cb5b1461010c578063c3dfdae61461011d578063d96a094a14610144578063f2fde38b14610157578063f5243bfd1461016a57600080fd5b80631481794e146100985780632f48ab7d146100ad57806369ea1771146100f1578063715018a614610104575b600080fd5b6100ab6100a6366004610a5f565b610181565b005b6100d47f000000000000000000000000000000000000000000000000000000000000000081565b6040516001600160a01b0390911681526020015b60405180910390f35b6100ab6100ff366004610a89565b610447565b6100ab6104ee565b6000546001600160a01b03166100d4565b6100d47f000000000000000000000000000000000000000000000000000000000000000081565b6100ab610152366004610a89565b610502565b6100ab610165366004610aa2565b610961565b61017360025481565b6040519081526020016100e8565b61018961099c565b6001600160a01b0382166101e45760405162461bcd60e51b815260206004820152601d60248201527f546f6b656e53746f72653a20696e76616c696420726563697069656e7400000060448201526064015b60405180910390fd5b600081116102405760405162461bcd60e51b815260206004820152602360248201527f546f6b656e53746f72653a20616d6f756e74206d75737420626520706f73697460448201526269766560e81b60648201526084016101db565b6040516370a0823160e01b815230600482015281907f00000000000000000000000000000000000000000000000000000000000000006001600160a01b0316906370a0823190602401602060405180830381865afa1580156102a6573d6000803e3d6000fd5b505050506040513d601f19601f820116820180604052508101906102ca9190610ac4565b10156103185760405162461bcd60e51b815260206004820181905260248201527f546f6b656e53746f72653a20696e73756666696369656e742062616c616e636560448201526064016101db565b60405163a9059cbb60e01b81526001600160a01b038381166004830152602482018390526000917f00000000000000000000000000000000000000000000000000000000000000009091169063a9059cbb906044016020604051808303816000875af115801561038c573d6000803e3d6000fd5b505050506040513d601f19601f820116820180604052508101906103b09190610add565b9050806103ff5760405162461bcd60e51b815260206004820181905260248201527f546f6b656e53746f72653a2055534454207472616e73666572206661696c656460448201526064016101db565b826001600160a01b03167fb0bd88cdae83f74f918eb6bf26d99dcb3c1530530f339233b029e3b6a00ac50b8360405161043a91815260200190565b60405180910390a2505050565b61044f61099c565b600081116104a95760405162461bcd60e51b815260206004820152602160248201527f546f6b656e53746f72653a20696e76616c69642065786368616e6765207261746044820152606560f81b60648201526084016101db565b600280549082905560408051828152602081018490527fb38780ddde1f073d91c150de2696f3f7085883648ba21cc5ef01029cb21d1916910160405180910390a15050565b6104f661099c565b61050060006109c9565b565b61050a610a19565b6000811161056b5760405162461bcd60e51b815260206004820152602860248201527f546f6b656e53746f72653a205553445420616d6f756e74206d75737420626520604482015267706f73697469766560c01b60648201526084016101db565b6000620f42406002548361057f9190610aff565b6105899190610b2a565b9050600081116105db5760405162461bcd60e51b815260206004820152601f60248201527f546f6b656e53746f72653a204754206f757470757420746f6f20736d616c6c0060448201526064016101db565b6040516370a0823160e01b815233600482015282907f00000000000000000000000000000000000000000000000000000000000000006001600160a01b0316906370a0823190602401602060405180830381865afa158015610641573d6000803e3d6000fd5b505050506040513d601f19601f820116820180604052508101906106659190610ac4565b10156106c15760405162461bcd60e51b815260206004820152602560248201527f546f6b656e53746f72653a20696e73756666696369656e7420555344542062616044820152646c616e636560d81b60648201526084016101db565b604051636eb1769f60e11b815233600482015230602482015282907f00000000000000000000000000000000000000000000000000000000000000006001600160a01b03169063dd62ed3e90604401602060405180830381865afa15801561072d573d6000803e3d6000fd5b505050506040513d601f19601f820116820180604052508101906107519190610ac4565b10156107af5760405162461bcd60e51b815260206004820152602760248201527f546f6b656e53746f72653a20696e73756666696369656e74205553445420616c6044820152666c6f77616e636560c81b60648201526084016101db565b6040516323b872dd60e01b8152336004820152306024820152604481018390526000907f00000000000000000000000000000000000000000000000000000000000000006001600160a01b0316906323b872dd906064016020604051808303816000875af1158015610825573d6000803e3d6000fd5b505050506040513d601f19601f820116820180604052508101906108499190610add565b9050806108985760405162461bcd60e51b815260206004820181905260248201527f546f6b656e53746f72653a2055534454207472616e73666572206661696c656460448201526064016101db565b6040516340c10f1960e01b8152336004820152602481018390527f00000000000000000000000000000000000000000000000000000000000000006001600160a01b0316906340c10f1990604401600060405180830381600087803b15801561090057600080fd5b505af1158015610914573d6000803e3d6000fd5b505060408051868152602081018690523393507f12cb4648cf3058b17ceeb33e579f8b0bc269fe0843f3900b8e24b6c54871703c92500160405180910390a2505061095e60018055565b50565b61096961099c565b6001600160a01b03811661099357604051631e4fbdf760e01b8152600060048201526024016101db565b61095e816109c9565b6000546001600160a01b031633146105005760405163118cdaa760e01b81523360048201526024016101db565b600080546001600160a01b038381166001600160a01b0319831681178455604051919092169283917f8be0079c531659141344cd1fd0a4f28419497f9722a3daafe3b4186f6b6457e09190a35050565b600260015403610a3c57604051633ee5aeb560e01b815260040160405180910390fd5b6002600155565b80356001600160a01b0381168114610a5a57600080fd5b919050565b60008060408385031215610a7257600080fd5b610a7b83610a43565b946020939093013593505050565b600060208284031215610a9b57600080fd5b5035919050565b600060208284031215610ab457600080fd5b610abd82610a43565b9392505050565b600060208284031215610ad657600080fd5b5051919050565b600060208284031215610aef57600080fd5b81518015158114610abd57600080fd5b8082028115828204841417610b2457634e487b7160e01b600052601160045260246000fd5b92915050565b600082610b4757634e487b7160e01b600052601260045260246000fd5b50049056fea26469706673582212207a41825b247528aaa928f51e2bb6a38a5ef0724d00647505cc22e7fdd16d3e0064736f6c63430008140033",
  "linkReferences": {},
  "deployedLinkReferences": {}
}